{
  "contractName": "VendingMachine",
  "abi": [
    {
      "anonymous": false,
      "inputs": [
        {
          "indexed": false,
          "name": "_client",
          "type": "address"
        },
        {
          "indexed": false,
          "name": "_destinatary",
          "type": "address"
        },
        {
          "indexed": false,
          "name": "_amountPay",
          "type": "uint256"
        }
      ],
      "name": "Paid",
      "type": "event",
      "signature": "0x9def4e2802183d68ce90a6a226a2962b59298616c27165f12c4fbc5c84cdd778"
    },
    {
      "constant": false,
      "inputs": [
        {
          "name": "_destinatary",
          "type": "address"
        }
      ],
      "name": "forward",
      "outputs": [],
      "payable": true,
      "stateMutability": "payable",
      "type": "function",
      "signature": "0x101e8952"
    }
  ],
  "bytecode": "0x608060405234801561001057600080fd5b5061019f806100206000396000f3fe608060405260043610610041576000357c0100000000000000000000000000000000000000000000000000000000900463ffffffff168063101e895214610046575b600080fd5b6100886004803603602081101561005c57600080fd5b81019080803573ffffffffffffffffffffffffffffffffffffffff16906020019092919050505061008a565b005b8073ffffffffffffffffffffffffffffffffffffffff166108fc349081150290604051600060405180830381858888f193505050501580156100d0573d6000803e3d6000fd5b507f9def4e2802183d68ce90a6a226a2962b59298616c27165f12c4fbc5c84cdd778338234604051808473ffffffffffffffffffffffffffffffffffffffff1673ffffffffffffffffffffffffffffffffffffffff1681526020018373ffffffffffffffffffffffffffffffffffffffff1673ffffffffffffffffffffffffffffffffffffffff168152602001828152602001935050505060405180910390a15056fea165627a7a72305820b61fbe5a33823dca862f75b6eaf1a4f06d62e0dfdaa27f1c796276b0bcf93ad00029",
  "source": "pragma solidity ^0.5.0;\n\n/**\n * @title VendingMachine\n * @dev see https://github.com/scammi/VendingMachine\n*/\n\ncontract VendingMachine {\n\n//Triggers event when payment is completed\n    event Paid(address _client, address _destinatary, uint _amountPay);\n\n/**\n*@dev fowards payments to owner of service\n*triggers event when successfully foward payment\n*returns change when payment exceeds price\n*@param _destinatary address belongs to the owner of the service\n*@param _price uint the price of the service\n*/\n    function forward(address payable _destinatary) public payable {\n        _destinatary.transfer(msg.value);\n\n        emit Paid(msg.sender, _destinatary, msg.value);\n\n    }\n\n}\n",
  "sourcePath": "/home/skamy/proyects/VendinMachine/Testing/contracts/VendingMachine.sol",
  "compiler": {
    "name": "solc",
    "version": "0.5.0+commit.1d4f565a.Emscripten.clang"
  },
  "schemaVersion": "3.0.2",
  "updatedAt": "2019-03-08T13:34:58.221Z",
  "devdoc": {
    "details": "see https://github.com/scammi/VendingMachine",
    "methods": {},
    "title": "VendingMachine"
  },
  "userdoc": {
    "methods": {
      "forward(address)": {
        "notice": "dev fowards payments to owner of service riggers event when successfully foward payment eturns change when payment exceeds price param _destinatary address belongs to the owner of the service param _price uint the price of the service"
      }
    }
  }
}