{
  "contractName": "VendingMachine",
  "abi": [
    {
      "anonymous": false,
      "inputs": [
        {
          "indexed": false,
          "name": "_client",
          "type": "address"
        },
        {
          "indexed": false,
          "name": "_destinatary",
          "type": "address"
        },
        {
          "indexed": false,
          "name": "_amountPay",
          "type": "uint256"
        }
      ],
      "name": "Paid",
      "type": "event",
      "signature": "0x9def4e2802183d68ce90a6a226a2962b59298616c27165f12c4fbc5c84cdd778"
    },
    {
      "constant": false,
      "inputs": [
        {
          "name": "_destinatary",
          "type": "address"
        }
      ],
      "name": "forward",
      "outputs": [],
      "payable": true,
      "stateMutability": "payable",
      "type": "function",
      "signature": "0x101e8952"
    },
    {
      "constant": true,
      "inputs": [
        {
          "name": "addrr",
          "type": "address"
        }
      ],
      "name": "getBalance",
      "outputs": [
        {
          "name": "",
          "type": "uint256"
        }
      ],
      "payable": false,
      "stateMutability": "view",
      "type": "function",
      "signature": "0xf8b2cb4f"
    }
  ],
  "bytecode": "0x608060405234801561001057600080fd5b506101b7806100206000396000f3fe60806040526004361061004b5763ffffffff7c0100000000000000000000000000000000000000000000000000000000600035041663101e89528114610050578063f8b2cb4f14610085575b600080fd5b6100836004803603602081101561006657600080fd5b503573ffffffffffffffffffffffffffffffffffffffff166100d7565b005b34801561009157600080fd5b506100c5600480360360208110156100a857600080fd5b503573ffffffffffffffffffffffffffffffffffffffff16610171565b60408051918252519081900360200190f35b60405173ffffffffffffffffffffffffffffffffffffffff8216903480156108fc02916000818181858888f19350505050158015610119573d6000803e3d6000fd5b506040805133815273ffffffffffffffffffffffffffffffffffffffff83166020820152348183015290517f9def4e2802183d68ce90a6a226a2962b59298616c27165f12c4fbc5c84cdd7789181900360600190a150565b73ffffffffffffffffffffffffffffffffffffffff16319056fea165627a7a72305820e47b7b4ddec1a02da7cb3cbcecf227dfaf321fe1deace3d1d03e64727d518da70029",
  "source": "pragma solidity ^0.5.0;\n\n/**\n * @title VendingMachine\n * @dev see https://github.com/scammi/VendingMachine\n*/\n\ncontract VendingMachine {\n\n//Triggers event when payment is completed\n    event Paid(address _client, address _destinatary, uint _amountPay);\n\n/**\n*@dev fowards payments to owner of service\n*triggers event when successfully foward payment\n*returns change when payment exceeds price\n*@param _destinatary address belongs to the owner of the service\n*@param _price uint the price of the service\n*/\n    function forward(address payable _destinatary) public payable {\n        _destinatary.transfer(msg.value);\n\n        emit Paid(msg.sender, _destinatary, msg.value);\n\n    }\n\n    function getBalance(address addrr) public view returns(uint) {\n        return (addrr.balance);\n    }\n\n}\n",
  "sourcePath": "/home/skamy/proyects/VendinMachine/contracts/VendingMachine.sol",
  "compiler": {
    "name": "solc",
    "version": "0.5.0+commit.1d4f565a.Emscripten.clang"
  },
  "schemaVersion": "3.0.2",
  "updatedAt": "2019-03-13T19:20:09.124Z",
  "devdoc": {
    "details": "see https://github.com/scammi/VendingMachine",
    "methods": {},
    "title": "VendingMachine"
  },
  "userdoc": {
    "methods": {
      "forward(address)": {
        "notice": "dev fowards payments to owner of service riggers event when successfully foward payment eturns change when payment exceeds price param _destinatary address belongs to the owner of the service param _price uint the price of the service"
      }
    }
  }
}