{
  "contractName": "VendingMachine",
  "abi": [
    {
      "anonymous": false,
      "inputs": [
        {
          "indexed": false,
          "name": "_client",
          "type": "address"
        },
        {
          "indexed": false,
          "name": "_destinatary",
          "type": "address"
        },
        {
          "indexed": false,
          "name": "_amountPay",
          "type": "uint256"
        }
      ],
      "name": "Paid",
      "type": "event"
    },
    {
      "constant": false,
      "inputs": [],
      "name": "initialize",
      "outputs": [],
      "payable": false,
      "stateMutability": "nonpayable",
      "type": "function"
    },
    {
      "constant": false,
      "inputs": [
        {
          "name": "_destinatary",
          "type": "address"
        }
      ],
      "name": "forward",
      "outputs": [],
      "payable": true,
      "stateMutability": "payable",
      "type": "function"
    }
  ],
  "bytecode": "0x608060405234801561001057600080fd5b50610348806100206000396000f3fe60806040526004361061004c576000357c0100000000000000000000000000000000000000000000000000000000900463ffffffff168063101e8952146100515780638129fc1c14610095575b600080fd5b6100936004803603602081101561006757600080fd5b81019080803573ffffffffffffffffffffffffffffffffffffffff1690602001909291905050506100ac565b005b3480156100a157600080fd5b506100aa610195565b005b8073ffffffffffffffffffffffffffffffffffffffff166108fc349081150290604051600060405180830381858888f193505050501580156100f2573d6000803e3d6000fd5b507f9def4e2802183d68ce90a6a226a2962b59298616c27165f12c4fbc5c84cdd778338234604051808473ffffffffffffffffffffffffffffffffffffffff1673ffffffffffffffffffffffffffffffffffffffff1681526020018373ffffffffffffffffffffffffffffffffffffffff1673ffffffffffffffffffffffffffffffffffffffff168152602001828152602001935050505060405180910390a150565b600060019054906101000a900460ff16806101b457506101b361030b565b5b806101cb57506000809054906101000a900460ff16155b1515610265576040517f08c379a000000000000000000000000000000000000000000000000000000000815260040180806020018281038252602e8152602001807f436f6e747261637420696e7374616e63652068617320616c726561647920626581526020017f656e20696e697469616c697a656400000000000000000000000000000000000081525060400191505060405180910390fd5b60008060019054906101000a900460ff1690506001600060016101000a81548160ff02191690831515021790555060016000806101000a81548160ff02191690831515021790555033603360006101000a81548173ffffffffffffffffffffffffffffffffffffffff021916908373ffffffffffffffffffffffffffffffffffffffff16021790555080600060016101000a81548160ff02191690831515021790555050565b600080303b9050600081149150509056fea165627a7a723058203168fbbf76de71b511496b3ea8f94b1f9424ca009a36dbc2d8a986029414b81e0029",
  "source": "pragma solidity ^0.5.0;\n\n/**\n * @title VendingMachine\n * @dev see https://github.com/scammi/VendingMachine\n*/\nimport \"zos-lib/contracts/Initializable.sol\";\n\n\ncontract VendingMachine is Initializable {\n\n   address owner;\n\n//Triggers event when payment is completed\n    event Paid(address _client, address _destinatary, uint _amountPay);\n\n    function initialize() initializer public {\n       owner = msg.sender;\n    }\n\n/**\n*@dev fowards payments to owner of service\n*triggers event when successfully foward payment\n*@param _destinatary address belongs to the owner of the service\n*/\n    function forward(address payable _destinatary) public payable {\n        _destinatary.transfer(msg.value);\n\n        emit Paid(msg.sender, _destinatary, msg.value);\n\n    }\n\n}\n",
  "sourcePath": "/home/skamy/proyects/VendinMachine/contracts/VendingMachine.sol",
  "compiler": {
    "name": "solc",
    "version": "0.5.0+commit.1d4f565a.Emscripten.clang"
  },
  "schemaVersion": "3.0.1",
  "updatedAt": "2019-03-15T19:10:11.234Z",
  "devdoc": {
    "methods": {}
  },
  "userdoc": {
    "methods": {
      "forward(address)": {
        "notice": "dev fowards payments to owner of service riggers event when successfully foward payment param _destinatary address belongs to the owner of the service"
      }
    }
  }
}