{
  "contractName": "VendingMachine",
  "abi": [
    {
      "anonymous": false,
      "inputs": [
        {
          "indexed": false,
          "name": "_client",
          "type": "address"
        },
        {
          "indexed": false,
          "name": "_destinatary",
          "type": "address"
        },
        {
          "indexed": false,
          "name": "_amountPay",
          "type": "uint256"
        }
      ],
      "name": "Paid",
      "type": "event"
    },
    {
      "anonymous": false,
      "inputs": [
        {
          "indexed": false,
          "name": "_client",
          "type": "address"
        },
        {
          "indexed": false,
          "name": "_change",
          "type": "uint256"
        }
      ],
      "name": "GaveChange",
      "type": "event"
    },
    {
      "constant": false,
      "inputs": [
        {
          "name": "_destinatary",
          "type": "address"
        },
        {
          "name": "_price",
          "type": "uint256"
        }
      ],
      "name": "forward",
      "outputs": [],
      "payable": true,
      "stateMutability": "payable",
      "type": "function"
    }
  ],
  "bytecode": "0x608060405234801561001057600080fd5b50610279806100206000396000f3fe6080604052600436106100405763ffffffff7c010000000000000000000000000000000000000000000000000000000060003504166358843b368114610045575b600080fd5b61007e6004803603604081101561005b57600080fd5b5073ffffffffffffffffffffffffffffffffffffffff8135169060200135610080565b005b348111156100ef57604080517f08c379a000000000000000000000000000000000000000000000000000000000815260206004820152601560248201527f4e6f7420656e6f756768207761732070617965642e0000000000000000000000604482015290519081900360640190fd5b34818111156101af5760405182820390339082156108fc029083906000818181858888f19350505050158015610129573d6000803e3d6000fd5b5060405173ffffffffffffffffffffffffffffffffffffffff85169084156108fc029085906000818181858888f1935050505015801561016d573d6000803e3d6000fd5b50604080513381526020810183905281517fafad93e25dc4295a8ab7d4db4071ae7a792c54e9072af7b546e1b956f49ede45929181900390910190a1506101f4565b60405173ffffffffffffffffffffffffffffffffffffffff84169082156108fc029083906000818181858888f193505050501580156101f2573d6000803e3d6000fd5b505b6040805133815273ffffffffffffffffffffffffffffffffffffffff85166020820152348183015290517f9def4e2802183d68ce90a6a226a2962b59298616c27165f12c4fbc5c84cdd7789181900360600190a150505056fea165627a7a72305820214be4563a0b33cd43ab0d13d6a72bc5fdbaef50f781dcd4d3987b857fa6c7440029",
  "source": "pragma solidity ^0.5.0;\n\n/**\n * @title VendingMachine\n * @dev see https://github.com/scammi/VendingMachine\n*/\nimport \"node_modules/zos-lib/contracts/Initializable.sol\";\n\n\ncontract VendingMachine is Initializable {\n\n//Triggers event when payment is completed\n    event Paid(address _client, address _destinatary, uint _amountPay);\n    event GaveChange(address _client, uint _change);\n\n/**\n*@dev fowards payments to owner of service\n*triggers event when successfully foward payment\n*returns change when payment exceeds price\n*@param _destinatary address belongs to the owner of the service\n*@param _price uint the price of the service\n*/\n    function forward(address payable _destinatary, uint _price) public payable {\n        require(msg.value >= _price, \"Not enough was payed.\");\n\n        uint amountPaid = msg.value;\n\n        if (amountPaid > _price) {\n            uint change = (amountPaid - _price);\n\n            msg.sender.transfer(change);\n\n            _destinatary.transfer(_price);\n\n            emit GaveChange(msg.sender, change);\n\n        } else {\n            _destinatary.transfer(amountPaid);\n\n        }\n        emit Paid(msg.sender, _destinatary, msg.value);\n\n    }\n\n}\n",
  "sourcePath": "/home/skamy/proyects/VendinMachine/contracts/VendingMachine.sol",
  "compiler": {
    "name": "solc",
    "version": "0.5.0+commit.1d4f565a.Emscripten.clang"
  },
  "schemaVersion": "3.0.2",
  "updatedAt": "2019-03-06T01:25:33.785Z",
  "devdoc": {
    "methods": {}
  },
  "userdoc": {
    "methods": {
      "forward(address,uint256)": {
        "notice": "dev fowards payments to owner of service riggers event when successfully foward payment eturns change when payment exceeds price param _destinatary address belongs to the owner of the service param _price uint the price of the service"
      }
    }
  }
}