{
  "contractName": "VendingMachine",
  "abi": [
    {
      "anonymous": false,
      "inputs": [
        {
          "indexed": false,
          "name": "_client",
          "type": "address"
        },
        {
          "indexed": false,
          "name": "_destinatary",
          "type": "address"
        },
        {
          "indexed": false,
          "name": "_amountPay",
          "type": "uint256"
        }
      ],
      "name": "Paid",
      "type": "event"
    },
    {
      "constant": false,
      "inputs": [
        {
          "name": "_destinatary",
          "type": "address"
        }
      ],
      "name": "forward",
      "outputs": [],
      "payable": true,
      "stateMutability": "payable",
      "type": "function"
    }
  ],
  "bytecode": "0x608060405234801561001057600080fd5b5061019f806100206000396000f3fe608060405260043610610041576000357c0100000000000000000000000000000000000000000000000000000000900463ffffffff168063101e895214610046575b600080fd5b6100886004803603602081101561005c57600080fd5b81019080803573ffffffffffffffffffffffffffffffffffffffff16906020019092919050505061008a565b005b8073ffffffffffffffffffffffffffffffffffffffff166108fc349081150290604051600060405180830381858888f193505050501580156100d0573d6000803e3d6000fd5b507f9def4e2802183d68ce90a6a226a2962b59298616c27165f12c4fbc5c84cdd778338234604051808473ffffffffffffffffffffffffffffffffffffffff1673ffffffffffffffffffffffffffffffffffffffff1681526020018373ffffffffffffffffffffffffffffffffffffffff1673ffffffffffffffffffffffffffffffffffffffff168152602001828152602001935050505060405180910390a15056fea165627a7a723058207d907c4f3795867c2f50e7079e63ed2b16912c4d2e40a2e56d522d1d4aaa78180029",
  "source": "pragma solidity ^0.5.0;\n\n/**\n * @title VendingMachine\n * @dev see https://github.com/scammi/VendingMachine\n*/\n\ncontract VendingMachine {\n\n//Triggers event when payment is completed\n    event Paid(address _client, address _destinatary, uint _amountPay);\n\n/**\n*@dev fowards payments to owner of service\n*triggers event when successfully foward payment\n*@param _destinatary address belongs to the owner of the service\n*/\n    function forward(address payable _destinatary) public payable {\n        _destinatary.transfer(msg.value);\n\n        emit Paid(msg.sender, _destinatary, msg.value);\n\n    }\n\n}\n",
  "sourcePath": "/home/skamy/proyects/VendinMachine/contracts/VendingMachine.sol",
  "compiler": {
    "name": "solc",
    "version": "0.5.0+commit.1d4f565a.Emscripten.clang"
  },
  "schemaVersion": "3.0.1",
  "updatedAt": "2019-03-14T19:44:33.155Z",
  "devdoc": {
    "details": "see https://github.com/scammi/VendingMachine",
    "methods": {},
    "title": "VendingMachine"
  },
  "userdoc": {
    "methods": {
      "forward(address)": {
        "notice": "dev fowards payments to owner of service riggers event when successfully foward payment param _destinatary address belongs to the owner of the service"
      }
    }
  }
}